:100000000C9434000C943E000C943E000C943E0082
:100010000C943E000C943E000C943E000C943E0068
:100020000C943E000C9440000C943E000C943E0056
:100030000C943E000C943E000C943E000C943E0048
:100040000C943E000C943E000C943E000C943E0038
:100050000C943E000C943E000C943E000C943E0028
:100060000C943E000C943E0011241FBECFEFD8E04C
:10007000DEBFCDBF0E944F000C945F000C940000C7
:100080001F920F920FB60F9211248F9385B1809516
:1000900085B98F910F900FBE0F901F9018958FEF1D
:1000A00084B915B885E08093B10080E28093B600F2
:1000B00081E0809370001092B2007894FFCFF894A2
:0200C000FFCF70
:00000001FF
