:100000000C9434000C943E000C943E000C943E0082
:100010000C943E000C943E000C943E000C943E0068
:100020000C943E000C943E000C943E000C943E0058
:100030000C943E000C943E000C943E000C943E0048
:100040000C943E000C943E000C943E000C943E0038
:100050000C943E000C943E000C943E000C943E0028
:100060000C943E000C943E0011241FBECFEFD8E04C
:10007000DEBFCDBF0E9440000C9457000C940000DE
:100080008FEF84B92FEF39E698E12150304090404E
:10009000E1F700C0000015B82FEF39E698E12150D4
:1000A00030409040E1F700C0000085B9EBCFF894F4
:0200B000FFCF80
:00000001FF
