:100000000C942A000C9434000C9434000C943400AA
:100010000C9434000C9434000C9434000C94340090
:100020000C9434000C9434000C9434000C94340080
:100030000C9434000C9434000C9434000C94340070
:100040000C9434000C9434000C9434000C94340060
:100050000C94340011241FBECFE5D8E0DEBFCDBF25
:100060000E9436000C944B000C940000A59A20E1ED
:1000700037E260E249E150E005C0CA010197F1F7BB
:100080002150304021153105C1F785B3862785BB46
:0A00900020E137E2F2CFF894FFCF31
:00000001FF
