:100000000C9434000C943E000C943E000C943E0082
:100010000C943E000C943E000C943E000C943E0068
:100020000C943E000C9440000C943E000C943E0056
:100030000C943E000C943E000C943E000C943E0048
:100040000C943E000C943E000C943E000C943E0038
:100050000C943E000C943E000C943E000C943E0028
:100060000C943E000C943E0011241FBECFEFD8E04C
:10007000DEBFCDBF0E945B000C9462000C940000B8
:100080001F920F920FB60F9211248F9385B18F5F3D
:1000900085B98F910F900FBE0F901F90189585E036
:1000A0008093B10080E28093B60081E0809370007D
:1000B0001092B20008958FEF84B915B80E944F00D6
:0800C0007894FFCFF894FFCF04
:00000001FF
