:100000000C942A000C9434000C9434000C943400AA
:100010000C9434000C9436000C9434000C9434008E
:100020000C9434000C9434000C9434000C94340080
:100030000C9434000C9434000C9434000C94340070
:100040000C9434000C9434000C9434000C94340060
:100050000C94340011241FBECFE5D8E0DEBFCDBF25
:100060000E944D000C9454000C9400001F920F92BB
:100070000FB60F9211248F9388B38F5F88BB8F9137
:100080000F900FBE0F901F90189585E085BD88E0FA
:1000900082BD80E489BF14BC08958FEF87BB18BA76
:0C00A0000E9445007894FFCFF894FFCF39
:00000001FF
